:020000040800F2
:10000000704B0020CD010008930400088B04000809
:100010008F0400083F030008E52E000800000000E0
:10002000000000000000000000000000652B000838
:1000300089040008000000005B020008A12C0008F1
:10004000E7010008E7010008E7010008E7010008F0
:10005000E7010008E7010008E7010008E7010008E0
:10006000E7010008E7010008E7010008E7010008D0
:10007000E7010008E7010008E7010008E7010008C0
:10008000E7010008E7010008E7010008E7010008B0
:10009000E7010008E7010008E7010008E7010008A0
:1000A000E7010008E7010008E7010008E701000890
:1000B000E7010008E7010008E7010008E701000880
:1000C000E7010008E7010008E7010008E701000870
:1000D000E7010008E7010008E7010008E701000860
:1000E000E7010008E7010008E7010008E701000850
:1000F000E7010008E7010008E7010008E701000840
:10010000E7010008E7010008E7010008E70100082F
:10011000E7010008E7010008E7010008E70100081F
:10012000E7010008E7010008E7010008E70100080F
:1001300000F002F800F03AF80AA090E8000C8244BF
:100140008344AAF10107DA4501D100F02FF8AFF29C
:10015000090EBAE80F0013F0010F18BFFB1A43F0A5
:1001600001031847802E0000A02E0000103A24BF83
:1001700078C878C1FAD8520724BF30C830C144BF0C
:1001800004680C607047000000230024002500264E
:10019000103A28BF78C1FBD8520728BF30C148BFEA
:1001A0000B6070471FB51FBD10B510BD00F089F87A
:1001B0001146FFF7F7FF02F0A3FE00F0A7F803B423
:1001C000FFF7F2FF03BC00F0ABF8000009488047DE
:1001D00009480047FEE7FEE7FEE7FEE7FEE7FEE729
:1001E000FEE7FEE7FEE7FEE704480549054A064B41
:1001F00070470000E92C000831010008702B002036
:10020000704B0020703B0020703B002072B670479E
:1002100062B67047EFF3108072B6704780F31088B3
:100220007047B0FA80F0704790FAA0F0704730BF86
:10023000704720BF7047000018484FF0FF01017061
:10024000002080F309881648016881F30888154862
:100250004FF08051016062B6FEE772B6EFF309809D
:1002600028B1203880E8F00F0F490968086000B510
:100270000E4880475DF804EB0D480E490A7802707D
:1002800009480D490A680260106890E8F00F2030B4
:1002900080F309884EF0040E62B6704722ED00E04C
:1002A0000401002004ED00E0FC000020950F000890
:1002B000A2000020A300002000010020704770472A
:1002C0007047754600F028F8AE460500694653466B
:1002D00020F00700854618B020B5FFF785FFBDE880
:1002E00020404FF000064FF000074FF000084FF09D
:1002F000000B21F00701AC46ACE8C009ACE8C0092E
:10030000ACE8C009ACE8C0098D4670470446AFF3BD
:1003100000802046FFF753FF00487047102B002055
:1003200001491820ABBEFEE726000200704700B569
:1003300085B0684602F0C4FB019805B000BD00BF5F
:10034000FEE70000044910B50020486000F07EF888
:10035000BDE8104000F002B8140000202DE9F04183
:10036000104D002426462C806C80AC60EC606C61E3
:10037000AC612C61FFF74EFF074600236C6100F073
:100380003BF800F049F868695B1C1B0406441B0C31
:10039000F4D0C5E904643846AC61BDE8F041FFF72C
:1003A0003DBF00001400002003490969884201D9BB
:1003B000401A7047002070471400002010B5FFF766
:1003C00029FF04494C69FFF729FF2046BDE810408A
:1003D000FFF7EABF1400002010B5FFF7EFFF044657
:1003E000FFF718FF034A00215161FFF717FF20466E
:1003F00010BD00001400002005480188491C018040
:10040000418811B9034A52688260491C4180704793
:1004100014000020001000E00A484188491E090429
:10042000090C41800CD108494968C1608268891A69
:1004300042698A4200D2416182698A4200D2816166
:100440007047000014000020001000E010B5FFF716
:100450006EFF07490A6842F080720A60054900226F
:100460004A600A6842F001020A600349486010BD10
:10047000FCED00E0001000E014000020014840689E
:1004800070470000001000E0704700BFFEE700BFAB
:10049000FEE770477047000002480068002800D05F
:1004A000004770475800002010B5044600F0A0F83F
:1004B0003D4900200A2208703C4908703C490870F8
:1004C0003C4908603C4908603C4908603C49087068
:1004D0003C490968B1FBF2F13B4A11603B4A1168A3
:1004E00031B13B49096819B1126801C1521EFCD1F2
:1004F0003849086038490860384908603849086058
:1005000038490860384908603849086001F0FCFB48
:1005100001F0B6FC204601F09FFE2088002841D162
:10052000204601F099F9208800283BD1204601F0AF
:1005300043F82088002835D1204602F029F9208888
:1005400000282FD1204600F039FF2088002829D12B
:10055000204601F007FA2088002823D1204601F028
:1005600025FA208800281DD1204601F081FA208834
:10057000002817D1204601F0F3FB2088002811D174
:10058000204601F0B3FD208800280BD1204602F060
:1005900053F92088002805D100F00EFFBDE8104077
:1005A000FFF778BF10BD00006C0000206D00002038
:1005B000BC000020B0000020B4000020B8000020E3
:1005C000C4000020AC2F0008C0000020982F0008B5
:1005D000942F00084C000020500000205400002000
:1005E000580000205C000020600000206400002013
:1005F000044805490068096800EB81000349001FB1
:1006000008607047942F0008982F0008040100200C
:1006100005480078012805D104490878FA2801D254
:10062000401C0870704700006D0000206C00002026
:10063000174810B50078012829D1FFF7EBFD0446D3
:1006400014480178F1B1491E11F0FF01017019D170
:1006500011480078B0B901F045FB10490870104905
:1006600000EB400051F820000E4908600E4909686F
:10067000884207D00D480168491C01600C494FF0C1
:10068000805008602046BDE81040FFF7C7BD10BD90
:100690006D0000206C000020BC000020A3000020A2
:1006A0000827002000010020FC000020D0000020CE
:1006B00004ED00E0144810B50078002822D113485A
:1006C000007800281ED1FFF7A5FD044601F00AFBC3
:1006D0000F4908700F4900EB400051F820000E4907
:1006E00008600E490968884207D00D480168491C16
:1006F00001600C494FF0805008602046BDE8104072
:10070000FFF78CBD10BD00006C000020BC00002075
:10071000A30000200827002000010020FC0000208A
:10072000D000002004ED00E070B5044612480078C7
:1007300010B146F662501DE010480078012802D042
:1007400045F6896016E00E4D2878FA2802D345F266
:1007500009200FE0FFF75EFD0646FFF74DFE287803
:10076000401C287001F050FCFFF756FE3046FFF7A2
:1007700055FD0020208070BD6C0000206D00002021
:10078000BC00002070B504461848007810B146F649
:10079000655029E016480078012802D045F68960A6
:1007A00022E0144D287890B1FFF734FD0646FFF79C
:1007B00023FE2878401E10F0FF0028700AD0FFF7B3
:1007C0002BFE3046FFF72AFD46F663500CE046F656
:1007D000645009E001F026FCFFF71EFE3046FFF7EB
:1007E0001DFDFFF767FF0020208070BD6C0000201A
:1007F0006D000020BC0000202DE9F04104461648A1
:1008000016460F4600781D4610B142F6E16020E022
:10081000ECB1FFF7FFFC8046FFF7EEFD26620026F5
:100820000E486662C4E9000704F1080001F09AF975
:10083000204601F049FC0A490888401C0880FFF75F
:10084000EBFD4046FFF7EAFC2E80BDE8F08145F65F
:10085000C3501880F9E700006C00002053454D415B
:10086000CC0000202DE9F04F0646594889B01C46BF
:100870000078129D91468A4610B146F2AE1009E00A
:1008800036B14AB1B2F5004F06D045F6256001E019
:1008900045F6C35028807AE04E483168814202D044
:1008A00045F6C450F6E7002704B12760FFF7B2FC15
:1008B0008346FFF7A1FDD6F82080B8F1000F0ED0D7
:1008C000A8F10108C6F820800CB1706A2060346A73
:1008D000FFF7A2FD5846FFF7A1FC2F806FE05FEA0B
:1008E00009400BD5FFF798FD5846FFF797FC46F2F5
:1008F000B0102880404609B0BDE8F08F3648017836
:1009000039B1FFF789FD5846FFF788FC46F663507A
:10091000C0E701218046017001F076FBFFF77CFD06
:100920005846FFF77BFC534606223146684601F0E5
:10093000ABF8FFF76FFC8146FFF75EFD98F80010FB
:10094000491E11F0FF0188F8001001D101F06AFB87
:10095000FFF762FD4846FFF761FCFFF7ABFEFFF7CC
:1009600059FC8046FFF748FD1C48006890F8351098
:1009700079B1012912D0022923D0032914D046F6D7
:100980002B602880FFF748FD4046FFF747FC00201A
:10099000B1E70CB1006C20602F800AE00CB1006C54
:1009A000206046F2A91003E004B1276047F2D92085
:1009B0002880346AFFF730FD4046FFF72FFC2046C1
:1009C00099E70CB1006C206045F6C250F0E70000DA
:1009D0006C00002053454D41BC000020FC0000206D
:1009E0002DE9FF410F460500144607D0134E286835
:1009F000B04206D045F6C450108013E045F6C3500F
:100A0000FAE7FFF73BFD02460D48007870B1002081
:100A1000CDE90224CDE900070346024629463046C7
:100A200000F0FEFD04B00020BDE8F08104B02346D4
:100A300039462846BDE8F04101F064BB53454D41BD
:100A40006C00002070B50F4D0446287818B145F6AB
:100A50008A60208070BD01F045F90B4908700B4990
:100A600008700B4900EB400051F82000094908606C
:100A70000949086001202870FFF7DEFB43F6992042
:100A8000E7E700006D000020A3000020A200002086
:100A90000827002000010020FC0000202DE9FF4F66
:100AA00083B004466A48DDE91773DDE91085DDE9A6
:100AB00012B60078DDF85490924610B147F24A1011
:100AC0002AE054B1BAF1000F0AD065B1614800685C
:100AD00086420BD246F62D601EE047F2AD101BE0B9
:100AE00047F24F1018E046F62C6015E0B34502D3EC
:100AF00046F62E6010E046F27320B8F1400F0BD29C
:100B0000B8F1000F03D0B8F13F0F02D008E052490E
:100B100000E052498C4203D0188007B0BDE8F08F46
:100B2000204601F0A9FB00221A80F80708D0B80778
:100B300006D52846002101E004C0491CB142FBD380
:100B400005EB8B0083460346CDE900672A465046F5
:100B5000069900F0EDF9C4F828A00699E16204991D
:100B6000216284F83780C4F808B0C4F8549020603B
:100B7000B9F1000F16D04846A0651698A6636562C5
:100B80006060A787204600F075F8FFF743FB064634
:100B9000FFF732FC324D2878401CC0B22870012883
:100BA00003D004E02F480068E6E701F02DFAFFF7D4
:100BB00033FC3046FFF732FB94F8370001F0B0F811
:100BC000204601F0A3F9204601F024FB26490888BD
:100BD000401C088025480078012821D0FFF71AFB27
:100BE0000446FFF709FC2878401E10F0FF01297029
:100BF0000ED101F017FA1E48008848B1FFF70CFC2F
:100C00002046FFF70BFB07B0BDE8F04F01F0DCB961
:100C1000FFF702FC07B02046BDE8F04FFFF7FEBA31
:100C2000FFF7F8FA0446FFF7E7FB2878401E10F0BC
:100C3000FF01297001D101F0F5F9FFF7EDFB204626
:100C4000FFF7ECFA07B0BDE8F04FFFF733BD000047
:100C50006C000020A82F0008842600200026002019
:100C6000BC000020C0000020D80000206D00002043
:100C70007800002002490968002900D00847704721
:100C80004C0000202DE9F04104464F480D46007805
:100C900010B147F24E100AE04C48844202D147F2AC
:100CA0004C1004E04A48844204D147F24D100880B9
:100CB000BDE8F0815CB9FFF7ADFA0646FFF79CFB93
:100CC00044480468FFF7A8FB3046FFF7A7FAFFF790
:100CD000A1FA0746FFF790FB3F4E3078401CC0B2A8
:100CE0003070012801D101F08FF9FFF795FB3846EC
:100CF000FFF794FA94F83600082839D2DFE800F0BC
:100D000004080C0C1C080C0C204601F033F913E00D
:100D1000204601F04FFC0FE0204601F04BFC94F818
:100D20003400072808D2DFE800F0070407040404B1
:100D30000400204600F048FF204600F053F820460B
:100D400001F076FA25490888401E0880204601F007
:100D500093FAFF2084F83600FFF75CFA0446FFF7A9
:100D60004BFB3078401E10F0FF00307020D021E0A7
:100D7000FFF750FA0446FFF73FFB3078401E10F0B3
:100D8000FF0030700CD101F04DF91548008838B1E2
:100D9000FFF742FB2046FFF741FA01F015F904E0A6
:100DA000FFF73AFB2046FFF739FA46F62A6009E0DA
:100DB00001F038F9FFF730FB2046FFF72FFAFFF775
:100DC00079FC0020288073E76C00002000260020BA
:100DD00084260020FC000020BC000020D800002059
:100DE0007800002002490968002900D008477047B0
:100DF0005000002002490968002900D008477047C8
:100E0000540000202DE9F05F82464648144688468B
:100E100000781D4618B146F2AE10188031E0002768
:100E200004B12760FFF7F6F98346FFF7E5FADFF82C
:100E3000F890D9F80000466C6EB1761E46640CB18D
:100E4000006C2060FFF7E8FA5846FFF7E7F92F80BB
:100E50003046BDE8F09F5FEA084007D5FFF7DCFAAF
:100E60005846FFF7DBF946F2B01009E02F4E307814
:100E700048B1FFF7D1FA5846FFF7D0F946F663506C
:100E800028800020E5E70120307001F0BDF8FFF771
:100E9000C3FA5846FFF7C2F9002153460722084615
:100EA00000F0F2FDFFF7B6F98046FFF7A5FA3078BB
:100EB000401E10F0FF00307001D101F0B3F8FFF7D1
:100EC000ABFA4046FFF7AAF9FFF7F4FBFFF7A2F9E8
:100ED0000646FFF791FAD9F8000090F8352032B1B4
:100EE000012A09D0032A0DD046F62B600EE00CB182
:100EF000006C20602F800AE00CB1006C206046F28C
:100F0000A91003E004B1276047F2D9202880D9F85E
:100F10000000446CFFF780FA3046FFF77FF9204667
:100F200097E700006C000020FC000020BC000020BF
:100F300010B5029C02EB8402103A4FF08074C2E9B3
:100F40000204134850604FF0123042F80409A2F135
:100F500028004FF00232C0E907134FF011318161D0
:100F6000D10041614FF0093101619100C1604FF042
:100F700007314FF003348160610041604FF005316B
:100F80000160C0E90924510040F8041D10BD0000B3
:100F9000092300080A4810B5006800B18047FFF730
:100FA0001BFA084909680A6F824200D20867064A9C
:100FB0004B6F1068834200D248670020106010BD5C
:100FC00060000020FC000020B80000202DE9F04166
:100FD000804636480F461546007810B147F2752016
:100FE00020E0334C207810B146F663501AE047B148
:100FF000022F06D0042F07D0082F02D045F6256017
:1010000010E0B8F1000F0BD0FFF704F90646FFF728
:10101000F3F92078401CC0B22070012805D006E00A
:1010200047F27E201080BDE8F08100F0EDFFFFF771
:10103000F3F93046FFF7F2F81E4E01212B463068D7
:101040003A4680F83610414601F048FA288898B1AF
:10105000FFF7E0F80546FFF7CFF92078401E10F0C3
:10106000FF01217001D100F0DDFFFFF7D5F928461F
:10107000BDE8F041FFF7D2B8306800F07BFFFFF722
:10108000C9F80646FFF7B8F92078401E10F0FF00B7
:10109000207001D100F0C6FFFFF7BEF93046FFF720
:1010A000BDF8FFF707FB00202880BCE76C0000209C
:1010B000BC000020FC0000202DE9F0475C4EDDE97B
:1010C0000854367816B147F27520ABE0DFF864A11A
:1010D0009AF8006016B146F66350A3E015F00E06CC
:1010E00047F27E2945F6256705D0022E03D0042E4F
:1010F00006D0082E07D11BB912B909B900287DD036
:1011000035F01E0C02D02780BDE8F087C5F300152E
:1011100047F2792C47F278284FF47A773DB142F2C2
:101120000F75A94212D900BFA4F800C0ECE7BB427A
:1011300002D347F27B2075E03B2A02D947F27A209E
:1011400070E03B29F0D8632802D804E0B84202D30B
:10115000A4F80080D8E7384D4FF4FA7CC1EB0111B8
:101160002D68BCFBF5FC63446B43B3FBF7F34FF412
:101170006167784300EB8100104400FB0537EFB353
:10118000FFF748F88046FFF737F99AF80000554610
:10119000401CC0B28AF80000012801D100F034FFE1
:1011A000FFF73AF94046FFF739F8DFF89080012160
:1011B0002346D8F80000324680F83610394601F050
:1011C0008DF9208898B1FFF725F80446FFF714F948
:1011D0002878401E10F0FF01297001D100F022FF95
:1011E000FFF71AF92046BDE8F047FFF717B8D8F81F
:1011F000000000F0BFFEFFF70DF800E014E0064627
:10120000FFF7FAF82878401E10F0FF00287001D18F
:1012100000F008FFFFF700F93046FEF7FFFFFFF789
:1012200049FA002020806FE7A4F800906CE70000E6
:101230006C000020BC000020AC2F0008FC00002047
:1012400000B585B000F01CF8FFF718F904AA0021DA
:1012500003920091CDE90110064807490023007868
:101260001A4600EB400001EB8001044800F0D8F979
:1012700005B000BDA2000020082700205449434BC0
:1012800002480068002800D0004770476400002032
:101290002DE9F05F04462448DDE90A8B00780D9DB6
:1012A0001F461646894610B147F243303AE044B132
:1012B000B8F1010F0CD0B8F1020F05D045F625604A
:1012C00030E045F6C3502DE01FB947F2403029E029
:1012D00036B3FEF79FFF8246FFF78EF8012084F8B1
:1012E0002A0026620026A66167621048E661C4E90A
:1012F0000009A4F82880C4F808B00C98C4E90306D3
:101300002046666101F08AFA09490888401C088075
:10131000FFF782F85046FEF781FF2E80BDE8F09F70
:1013200047F23F302880F9E76C000020544D5220EE
:10133000E8000020F8B505461D480C46007810B1BD
:1013400047F2433009E035B11A492868884206D08F
:1013500045F6C45028E047F24230088025E0684650
:10136000FFF7E2F995F82A00C8B1002601280CD051
:10137000022807D0032808D06846FFF703FA47F28F
:10138000413011E0284601F075FB0021284601F0AC
:10139000D3FA6846FFF7F6F926800120F8BD6846C3
:1013A000FFF7F0F947F23D3020800020F8BD000043
:1013B0006C000020544D522070470000034A002169
:1013C0001160034A118001807047000084000020F2
:1013D000880000202DE9F05F9A4690460D460446AD
:1013E0000A9FFEF717FF8346FFF706F85FEA08003B
:1013F00011D0012812D0B0F5004F0CD06FF400418D
:1014000018EB01000AD0FFF707F85846FEF706FF71
:1014100045F625607AE0206A284301E0206AA84367
:10142000C4E9080A208A04F108064FF0000938B11F
:10143000454D2878401CC0B2287001280AD00BE026
:10144000FEF7EAFF5846FEF7E9FEA7F80090206A8B
:10145000BDE8F09F00F0D8FDFEF7DEFF5846FEF72E
:10146000DDFE36682FE090F86C10766801F00F0111
:10147000012919D002291ED004290DD008290FD026
:10148000FEF7C8FE0446FEF7B7FF2878401E10F0AE
:10149000FF00287026D032E0216A426E114007E03A
:1014A000216A426E114009E0416E236A0A4699435F
:1014B0008A4204D006E0416E226A914311B152463D
:1014C00000F046F816B1B0680028CCD1FEF7A2FEB5
:1014D0000646FEF791FF2878401E10F0FF002870A6
:1014E00017D018E000F09EFD1848008838B1FEF7CC
:1014F00093FF2046FEF792FE00F066FD04E0FEF743
:101500008BFF2046FEF78AFE43F6FF20388000203E
:101510009EE700F087FDFEF77FFF3046FEF77EFE78
:101520005FEA084001D4FFF7C5F8FEF773FE0546F1
:10153000FEF762FF246AFEF76FFF2846FEF76EFE95
:10154000A7F80090204683E7BC0000207800002028
:1015500070B500F134040025816665702570026461
:10156000A078343C08280ED2DFE800F00D0D04040A
:101570000D0D0A0A204600F0B9FE84F8365002E04C
:10158000042084F836002046BDE8704000F01CBB03
:10159000084C00BFFEF73EFE0546FEF72DFF206813
:1015A000401C2060FEF738FF2846FEF737FEFEF7A6
:1015B00073FFEFE76800002000B50E4A89B00021F4
:1015C0001160032205910691CDE907200A480B4AD4
:1015D0000B4B006812681B680292CDE903013F20A3
:1015E000CDE900030023074A07A10C48FFF756FA8C
:1015F00009B000BD68000020742F0008702F00089B
:101600006C2F00089115000875432F4F532D494941
:10161000492049646C65205461736B0000260020EA
:101620002DE9F84F1D46DDE90CB4DDE90AA916469F
:101630000F468046FEF7EEFD0090FEF7DDFE1D48EA
:101640001D4A0188128891422CD2491C89B201801E
:101650001A4802888A4200D2018019490868C0F8F5
:101660000080C0E902760582C0F814A0A0F81890A6
:10167000C0F81CB04068086012480121018112497D
:1016800001604160002000F04BFB104810490078D9
:10169000087000202080FEF7BFFE0098BDE8F84FDC
:1016A000FEF7BCBD0B490888401C088044F253601B
:1016B000F0E7000078000020622F00087A00002088
:1016C000700000200827002084260020A2000020AF
:1016D000A40000207C0000202DE9FE4FFEF79AFDBB
:1016E0008246FEF789FE32490868D0E902B9B0F8AF
:1016F0001080058B47690668C46940680860FEF77A
:101700008BFE5046FEF78AFD2A4902A8721A8E42C5
:101710001CD00DDC2849711822D0284A891817D00E
:101720002748081812D102AB2246294658463BE00A
:10173000244951181BD0244A891807D1CDE900400B
:101740002B4642464946584600F016FBBDE8FE8F40
:10175000009023462A4639465846FFF73BFEF5E7F8
:10176000034622462946584600F0CCFCEEE71748CF
:101770001749007800EB400001EB800000F070FC9E
:1017800002AB22460021134800F0CAFD124801684E
:10179000491E0160DAD1114909680160FEF76EFE49
:1017A000024602AB00210E4800F0BAFDCEE7000071
:1017B00074000020544D5347ADBAB2BE0DF90BFA78
:1017C000F2F8F7FF000410FC03F4FDF5A40000207C
:1017D00008270020082A0020F8000020F40000203C
:1017E0008C2A0020194D1A4C2088C8B1FEF746FEFD
:1017F0000646FFF771FFFEF741FE2968801B88420D
:1018000000D92860FEF706FD0646FEF7F5FD2088A4
:10181000401E2080FEF700FE3046FEF7FFFCE3E7A7
:10182000FEF7F8FC0646FEF7E7FD0A4800210181B5
:1018300001604160084600F083FAFEF7EDFD304696
:10184000FEF7ECFCFEF736FFCEE70000800000203C
:101850007800002008270020F0B52C492C4D89B0D5
:1018600000220A80296831B12A4E3188022905D226
:1018700044F254612FE044F252612CE026490023E7
:10188000264F0A60296801F120040AE08A600F608F
:10189000CA600A824A610A834C60203120345B1C92
:1018A0009BB2B6F800C06345F0D32B6841F81C3CEE
:1018B0001B490B601B490B601B490A801B490A80AE
:1018C0001B490B6853B11B4B1B4D1C682D68AC4268
:1018D00007D246F62D61018009B0F0BD46F62C61B5
:1018E000F9E7032405920692CDE907401868134BE7
:1018F00009681B68CDE903020092CDE901130023BA
:101900000F4A10A11648FFF7C9F8E5E77C00002050
:101910007C2F0008622F0008800000204E4F4E45AB
:101920007000002074000020780000207A00002061
:10193000842F00088C2F0008A82F0008882F00088B
:10194000E517000875432F4F532D49494920495346
:1019500052205175657565205461736B000000005D
:1019600084260020034A00211160034A118001806F
:10197000704700008C0000209000002010B5491E28
:101980008CB2002200F11003114607E0C0E90031DB
:101990000181C16010301033521C92B2A242F5D3C3
:1019A000016041600181C16010BD000070B50D4E45
:1019B0000446306878B10C4D288878B181B230681F
:1019C000FFF7DCFF09483168016029888180002128
:1019D000C180218070BD45F21E7001E045F21D708E
:1019E000208070BDA42F0008642F00089400002000
:1019F0002DE9F043B0F80AC0DDE907970489A44552
:101A000002D346F2935019E0184DAE88A6B12C6867
:101A1000761ED4F80080C5F80080AE80EE88761C73
:101A2000EE800025BCF1000F0BD0DB060DD403685F
:101A30001C60256004600BE045F21D703880BDE835
:101A4000F08304600123446004E043682360446041
:101A500043895B1C438186899BB2B34200D9838151
:101A600061602281C4F80C903D80E8E7940000207A
:101A7000034A00211160034A118001807047000071
:101A80009C000020A00000202DE9F041114D0746E8
:101A90000C4628680026194680F8342080F8356006
:101AA00000F0A2FB64B1FC6004F108060122394693
:101AB000286800F011F83946304600F058F802E086
:101AC0002868C687066320462968BDE8F04100F013
:101AD00017B80000FC00002010B5C2870024234680
:101AE000016309E04B600B600B614B610B83CB61C1
:101AF00088602031641CA4B29442F3D310BD00006E
:101B000038B14268C1F8802081688968096AC1617A
:101B1000704791F83400022803D0072803D004A0AE
:101B200002E004A000E005A0C1F8800070470000BA
:101B3000200000005461736B205100005461736BEE
:101B40002053656D00000000054AC1F880208168BF
:101B500019B18968096AC1617047C26170470000A4
:101B6000E02F00080021016041600181704730B51D
:101B70008A68002392F8374002891AB1521C028108
:101B800002680BE0012202814B600B60016014E0EF
:101B9000956895F83750A54203D85268002AF7D1C6
:101BA00007E032B1146854B1C1E9004261601160CC
:101BB00030BD4B6042680A605160416030BD1160C9
:101BC000C1E90032016030BD70B50646C48F056BB7
:101BD00007E0E8682946083000F009F82035641E5F
:101BE000A4B2002CF5D10020F087306370BD10B591
:101BF00002890023012A0BD00A6862B14C6874B1D3
:101C0000546022600289521E02814B600B6010BD3D
:101C100003604360F6E74A6813600260F2E75360CE
:101C20004260EFE7F8B50C46064691F836100025FD
:101C300006981F4608293AD2DFE801F03939040432
:101C40003939212194F83410032911D0E265A4F820
:101C50006070206436B12046FFF7B6FF214630465B
:101C6000FFF772FF204600F041FB3434A5701CE002
:101C700000903B462146304600F021F8EAE794F810
:101C80003410032914D0E265A4F860702064204663
:101C900000F090FC36B12046FFF796FF2146304613
:101CA000FFF752FF04203434A07065702570F8BD32
:101CB00000903B462146304600F001F8E7E770B55A
:101CC0000C6B049DC98F0AE0E668864204D1C4E922
:101CD00004022383E56170BD2034491E89B20029C6
:101CE000F2D170BD10B50024064802E02034E4B201
:101CF000001D01680029F9D00846FEF792FA204439
:101D0000C0B210BD4400002000200449024600BFBC
:101D100041F82020401C0228FAD3704744000020DC
:101D200000F01F0241090120C2F11F029040034A46
:101D300052F82130034342F821307047440000201C
:101D400000F01F0241090120C2F11F029040034A26
:101D500052F82130834342F821307047440000207C
:101D6000034A00211160034A11800180704700007E
:101D7000A8000020AC0000202DE9FF4F83B01F46D3
:101D8000DDE9109A93460646FEF744FA0546FEF74B
:101D900033FB394C2078401CC0B22070012801D19F
:101DA00000F032F9FEF738FB2846FEF737FA358A9D
:101DB00006F108001DB1B90530D500683DE0F80610
:101DC00001D4002300E01023CDE9009A5A4606F121
:101DD00020000499FFF70CFEFEF71CFA0546FEF7FB
:101DE0000BFB2078401E10F0FF0121700ED100F097
:101DF00019F92248008848B1FEF70EFB2846FEF785
:101E00000DFA07B0BDE8F04F00F0DEB8FEF704FBB6
:101E100007B02846BDE8F04FFEF700BA006801257C
:101E2000001D5B4603C88046CDF800903046049AFA
:101E3000FFF7F8FE6D1E4046ADB2002DF0D1FEF763
:101E4000E9F90546FEF7D8FA2078401E10F0FF00A9
:101E5000207001D100F0E6F8FEF7DEFA2846FEF722
:101E6000DDF9380401D4FEF725FC0021AAF80010A2
:101E700007B0BDE8F08F0000BC0000207800002013
:101E80000020074B014600BF00EB400203EB82023B
:101E9000401C11811160C0B251604028F4D37047DA
:101EA0000827002010B5044690F83700FFF738FFE8
:101EB000074994F8370009788842204603D1BDE8E5
:101EC000104000F023B8BDE8104000F003B8000057
:101ED000A200002090F837100B4A01EB410102EB01
:101EE000810100220B8943B15B1C0B810B68C0E9A7
:101EF00003320A6810610860704701230B81C260D9
:101F000002610860486070470827002090F8371089
:101F10000A4A01EB410102EB810100220B893BB12E
:101F20005B1C0B81C2604A680261D06048607047E8
:101F300001230B81C26002610860F7E708270020D7
:101F400010B50289002A14D0012A12D00021022AD9
:101F500007D0D0E90024D3681961C2E90314E26014
:101F600005E0D0E90023C2E90313C3E90321C0E976
:101F7000003210BD70B5054690F83700114900EBEE
:101F8000400001EB8001D5E90302002442B10B8936
:101F90005B1E0B81D06090B102612C61EC6070BD62
:101FA00028B10A89521E0A8104610860F5E70C8194
:101FB0000C604C6095F83700FFF7C2FEEDE74A6011
:101FC000EBE700000827002010B5FEF723F9094AC7
:101FD00000211170094A0849116009490A68521C18
:101FE0000A60084A4FF080511160BDE81040FEF7CA
:101FF00015B90000A3000020842600200001002065
:10200000D000002004ED00E0044810B5007801285D
:1020100003D1FEF733FA0249086010BDBC0000206E
:10202000B00000200A4810B5007800280ED1FEF755
:1020300025FA08490968401A07490A68904200D9F8
:10204000086006490A68904200D9086010BD000087
:10205000BC000020B0000020B4000020B800002028
:1020600070B5044614480078012824D1FEF7D2F850
:102070000546FEF7C1F92168B1B11048814213D07D
:102080008A6D12B1521E8A650ED1208902280BD3A7
:102090000B48007840B92046FFF752FF2068416D99
:1020A00009B9084909688165FEF7B6F92846BDE80F
:1020B0007040FEF7B3B870BDC400002000260020B9
:1020C000BC000020C00000200022074B05A1426197
:1020D000C161196819B181614861186070478261F6
:1020E000FBE7000020000000C8000020034A002198
:1020F0001160034A1180018070470000C800002071
:10210000CC0000202DE9F84F1E4690468946044633
:10211000FEF780F80090FEF76FF9208A04F10807B7
:102120004FF0000B50B1DFF8BCA09AF80010491C2A
:10213000C9B28AF8001001291AD01BE0256A681C70
:102140000CD06D1CC4E90858FEF766F90098FEF73C
:1021500065F8A6F800B02846BDE8F88FFEF75CF9F0
:102160000098FEF75BF846F6C55030800020F3E794
:10217000FFF74AFFFEF750F90098FEF74FF85FEAC5
:10218000895002D53D893F680CE03F680125002356
:10219000B9687F681A462046CDF80080FFF742FDF7
:1021A0006D1EADB2002DF2D1246AFEF733F805465C
:1021B000FEF722F99AF80000401E10F0FF008AF89E
:1021C000000001D1FFF72EFFFEF726F92846FEF7A3
:1021D00025F85FEA094001D4FEF76CFAA6F800B0D2
:1021E0002046B9E7BC00002038B50446022531B1CD
:1021F0006B46022200F072F9BDF8000028B184F8A5
:1022000036502046FFF7B6FE38BD032084F836006E
:10221000F7E70000054B00228267196819B1C16712
:10222000886718607047C267FBE70000D400002091
:10223000D0E91E2100232AB151B1D1678A67C36753
:1022400083677047034A116001B18B67C3677047AA
:10225000D367F5E7D4000020044A00211160044A46
:102260001180044A1160018070470000D4000020F2
:10227000D8000020D0000020002101608160416072
:10228000C1600161416116A28161C0E9071241622A
:102290008162C1620163C1870164C165A0F86010F9
:1022A0004166A0F86C1081664164816381874FF0BC
:1022B0000042C0E9122101654165816501674167FE
:1022C00080F8341080F8351080F83610402280F8FD
:1022D00037208167C16704A1C0F8801070470000F3
:1022E0003F5461736B0000002000000010B50446ED
:1022F00000F060F994F83600400704D42046BDE8A9
:102300001040FFF7CFBD10BD044808B50068FEF7C8
:1023100071FD69460020FEF7B5FC08BDFC000020F9
:102320002DE9F8431E46904689460546FDF772FFA3
:102330000746FEF761F85B4C2078401CC0B2207065
:10234000012801D1FFF760FEFEF766F83846FDF779
:1023500065FF0DB9544805680020544FC5F840800A
:10236000308095F83600082878D2DFE800F00404C1
:10237000464604044646D5F8448018F1010021D1B0
:10238000FDF748FF0546FEF737F82078401E10F0AD
:10239000FF0020700BD1FFF745FE388838B1FEF7FB
:1023A0003BF82846FDF73AFFFFF70EFE04E0FEF784
:1023B00033F82846FDF732FF46F6C550308000203E
:1023C000BDE8F88308F10108C5F84480FDF722FF55
:1023D0000546FEF711F82078401E10F0FF0020702F
:1023E00036D1FFF71FFE388880B3FEF715F8284670
:1023F000FDF714FFFFF7E8FD51E095F834000728DA
:1024000002D0D5F84480DDE700231A462946184655
:10241000CDF80080FFF706FCD5F84480FDF7FAFE02
:102420000546FDF7E9FF2078401E10F0FF00207000
:1024300001D1FFF7F7FDFDF7EFFF2846FDF7EEFEB0
:102440005FEA09402BD4FEF735F928E000E005E00B
:10245000FDF7E2FF2846FDF7E1FE20E0FDF7DAFE9A
:102460000546FDF7C9FF2078401E10F0FF002070E0
:102470000BD1FFF7D7FD388838B1FDF7CDFF2846DF
:10248000FDF7CCFEFFF7A0FD04E0FDF7C5FF2846F1
:10249000FDF7C4FE46F62A6030804FF00008404643
:1024A0008EE70000BC000020FC0000207800002027
:1024B00010B500200146074C074B06E004EBC002B4
:1024C000401C11609180D18080B21A889042F5D36F
:1024D00010BD0000F0220020662F0008F0B5324C3D
:1024E00047F27E2625680024042A08D0B1B32E4E78
:1024F000082A36680E440BD0C0E9136115E04A1B68
:10250000521E12F5803F2AD8521CC0E913120CE06B
:10251000826C0A44571B7F1E8F4201D2C26400E0C6
:10252000C664C16C4A1B02658164204AC16C128872
:10253000B1FBF2F602FB16111D4A89B202EBC10291
:10254000918889B11168F1B1CE6C761B0E65076D6B
:10255000B74212D94E6966B13146F5E7FFE7C46468
:102560000465C4611E80F0BD446184610121106076
:102570000BE0C0E90541486105E08D6975B1C0E92E
:102580000515686188619188491C9180D58889B258
:102590008D4200D2D180C2611C80F0BDC0E905141B
:1025A00088611060EFE70000DC000020662F000863
:1025B000F022002010B5C269002A15D00021016563
:1025C0001368834204D14369136033B1996104E015
:1025D000D0E90534636103B19C6141618161C161EE
:1025E000C1649088401E908010BD00002DE9F05F0E
:1025F000FDF710FE0446FDF7FFFE554F3878401CEE
:10260000C1B23970012901D1FFF7FEFCFDF704FFCB
:102610002046FDF703FEFDF731FFDFF8388106465F
:102620004D49D8F800004FF00009401CC8F80000E0
:1026300009884FF0030AB0FBF1F201FB1200474991
:1026400080B24FF0040B51F8304074B394F8360068
:102650006569082851D2DFE800F050045011502974
:102660005036E06CD8F80010421A2265884246D1F4
:1026700084F836902046FFF739FE3EE0E06CD8F84B
:102680000010421A2265884239D1C4F85C90A4F83F
:102690006090FDF7F3FE20642046FFF795FA204690
:1026A000FFF724FE84F8369023E028E0E06CD8F8A9
:1026B0000010421A2265884221D184F836B02046A3
:1026C000FFF778FF19E0E06CD8F80010421A226595
:1026D000884214D1C4F85C90A4F86090FDF7CEFE57
:1026E00020642046FFF770FA2046FFF763FF84F866
:1026F00036B084F835A084F834902C46A5E7FDF771
:10270000BDFE1749801B0A68904200D90860FDF79A
:1027100081FD0446FDF770FE3878401E10F0FF0181
:1027200039700DD1FFF77EFC0E48008840B1FDF7EF
:1027300073FE2046FDF772FDBDE8F05FFFF744BC75
:10274000FDF76AFE2046BDE8F05FFDF767BD0000BB
:10275000BC000020DC000020662F0008F0220020D2
:10276000E0000020780000201CB5084C00216B46DA
:1027700001AA0846FEF746FBBDF800000028F5D187
:1027800020780128F2D1FFF731FFEFE76D0000203C
:1027900030B50546144889B000240460134804602D
:1027A000FFF786FE124801783F2904D346F27320D2
:1027B000288009B030BD0321CDE906410D490895B7
:1027C00005940A680C490D4B0DF1080C09681B684B
:1027D0000193ACE81600007800900023084A09A194
:1027E0000D48FEF75BF9E4E7DC000020E000002084
:1027F000602F0008B82F0008B42F0008B02F000881
:102800006927000875432F4F532D494949205469C2
:10281000636B205461736B00082A0020054B002273
:10282000C262196819B10163C86218607047026317
:10283000FBE70000E400002070B5294A8AB00021BF
:10284000284B1160284C294A1D681DB12468B4FB2F
:10285000F5F303E023680A24B3FBF4F313601A468C
:10286000234B264D264C1A60224A00231160224A2F
:10287000116006E005EBC3025B1C9180D1809BB226
:10288000116022889342F5D31E4C47F246332268EA
:102890002AB11D4A1D4E15683668B54202D2038022
:1028A0000AB070BD1A4B1D783F2D03D346F2732139
:1028B0000180F5E7032505910691CDE907501068E1
:1028C000144A24681268CDE90301CDE90142187861
:1028D00000900023104A11A11648FEF7DFF8DFE749
:1028E000E4000020C42F0008AC2F0008F4000020F2
:1028F000F8000020F0000020EC00002078250020E7
:10290000682F0008C82F0008D02F0008A82F000843
:10291000612F0008CC2F0008D129000875432F4FE4
:10292000532D4949492054696D6572205461736B78
:10293000000000008C2A002070B5022280F82A20B6
:10294000204A012914681ED0016AE1B11E4A2144BF
:1029500081611288B1FBF2F302FB13121B4B92B29E
:1029600003EBC202002315687DB1091BC161116828
:10297000D1B18D692D1BCD61C669AE420ED90D69ED
:1029800045B12946F5E7416AE0E70361436110601C
:1029900001200BE0C0E90431086105E04C6964B135
:1029A000C0E90414206148619088401C9080D1885F
:1029B00080B2814200D2D08070BDC0E9041348616A
:1029C0001060F1E7F0000020682F00087825002053
:1029D0001CB5DFF89090DFF890A0244DDFF890B0A0
:1029E00000216B4601AA0846FEF70CFA6846FDF77F
:1029F0009BFEFDF743FD064628684FF00308401C88
:102A00002860B9F80010B0FBF1F201FB120080B2AF
:102A10005AF83040C4B1A06929682769884213D1A7
:102A2000204600F027F8208D022808D084F82A805C
:102A3000A26812B12046E16890473C46EAE70121CE
:102A40002046FFF779FFF3E7FDF718FD841B684682
:102A5000FDF798FEDBF800108C42C1D9CBF800409E
:102A6000BEE70000682F000878250020F000002055
:102A7000EC00002010B5104A81691288B1FBF2F316
:102A800002FB13110D4A89B202EBC1020023146844
:102A90000169844203D1116029B14B6103E04469AB
:102AA000216101B14C61012180F82A100361436169
:102AB0009088401E908010BD682F00087825002067
:102AC00030B523494A68234C12F00C0204D0224B43
:102AD000042A03D0082A03D0046013E01A6834E003
:102AE0004A684C6802F470124FF0020514F4803FFB
:102AF00005EB924227D04C681B68A40300D55B0805
:102B0000534303604A680F23144C03EA1212A35C78
:102B10000268DA4042604B68072505EA1323E35C4C
:102B200022FA03F383604B6805EAD323E35CDA40BF
:102B3000C2604968032303EA9131231F595CB2FB49
:102B4000F1F1016130BD064B5A430260DAE7000043
:102B50000010024000127A005C2F000834000020B0
:102B600000093D00704710B500F002F810BD0000EC
:102B70000CB50020019000903248006840F480308D
:102B80003049086000BF2F48006800F40030009012
:102B90000198401C0190009818B90198B0F5A06FF9
:102BA000F1D12848006810F4003F02D001200090C5
:102BB00001E0002000900098012842D122480068DE
:102BC00040F01000204908600846006820F003002B
:102BD00008600846006840F0020008601948406834
:102BE000184948600846406848600846406840F414
:102BF000806048600846406820F47C1048600846C1
:102C0000406840F4E81048600846006840F0807072
:102C1000086000BF0B48006810F0007FFAD0094838
:102C2000406820F00300074948600846406840F0CB
:102C30000200486000BF0348406800F00C0008280C
:102C4000F9D10CBD001002400020024030B5014611
:102C5000481EB0F1807F01D3012030BD481E4FF0E7
:102C6000E022506150170F22002807DA13071D0ECB
:102C7000094B00F00F04241F1D5503E013071C0E21
:102C8000064B1C5400BF00204FF0E022906107204B
:102C900010610020E1E7000018ED00E000E400E032
:102CA00010B5FDF7B5FCFEF7CBFAFDF7C1FC10BD82
:102CB00010B50B4800680B490968B0FBF1F42046D9
:102CC000FFF7C4FF0648006806490968B0FBF1F445
:102CD0002046FFF7BBFF08B100BFFEE710BD0000B4
:102CE00000000020AC2F000810B51448006840F028
:102CF00001001249086008464068114908400F4920
:102D00004860084600680F4908400C4908600846BA
:102D1000006820F4802008600846406820F4FE0027
:102D200048604FF41F008860FFF71DFF06480068E9
:102D300040F000600549086010BD0000001002402E
:102D40000000FFF8FFFFF6FE582F000808ED00E036
:102D50000EB50CE002A801AB002211460090044819
:102D6000FDF780FD02AA00210A20FEF72FF9F1E706
:102D70004814002092B011A800210C4A0223CDE98A
:102D80000032CDE9021064230A4609A104A8FEF727
:102D90007FFA11A904A8FEF7CDFA05E011AA0021D7
:102DA0004FF47A70FEF712F9F8E70000E92E0008F8
:102DB000546D724F6650524F44554354000000000A
:102DC0000EB502AB002208A10B48FDF715FD09E086
:102DD00002A800214FF4FA730A46CDE90010084614
:102DE000FEF76AF9F4E7000053656D4F6650524FE5
:102DF00044554354000000004814002010B58AB028
:102E00000446FDF79FFAFFF753FF09A803210022AC
:102E10000592CDE90621089010464FF4FA7132224E
:102E2000204BCDE90132CDE90310042000231E4AD6
:102E30001EA100901E48FDF731FE09A803210022C3
:102E40000592CDE9062108901046C8211422194B9D
:102E5000CDE90132CDE903103B200023164A17A12A
:102E600000901848FDF71AFE09A8032100220592D8
:102E7000CDE9062108901046C8211422124BCDE955
:102E80000132CDE903103A200023104A10A100902E
:102E90001248FDF703FE09A91148FDF7F3FE0AB039
:102EA00010BD000030050020C12D000853656D00E5
:102EB000AC040020840D0020752D000850524F44B2
:102EC00055435400000D002028110020512D00080A
:102ED000437573746F6D657200000000A4100020CC
:102EE0000801002000BFFEE738B504460D466A46DB
:102EF0004FF400710148FDF773FD38BD4814002000
:102F000000B58BB00AA8FDF7CFFA0AA8032100226A
:102F10000592CDE9062108901046C8211422094BDC
:102F2000CDE90132CDE9031003200023064A07A1B1
:102F300000900848FDF7B2FD0AA8FDF783FD0020C8
:102F40000BB000BD8C010020FD2D00085374617290
:102F500074557000080100200000000000A24A041F
:102F60003C3D0A00640011001100000070140020B4
:102F70000600000040000000000100007015002065
:102F800040010000B01600200C000000800000008E
:102F900000020000B01800208000000000020000C5
:102FA00040060000B01A002040000000E8030000C6
:102FB000F02000200C000000800000000002000053
:102FC0008800000064000000782300200C0000004E
:102FD0008000000000020000880000009011000046
:102FE000200000000430000800000020080100005C
:102FF0006C0100080C31000808010020684A00003C
:103000008801000800A24A0400000000000000003F
:103010000102030406070809000000000000000088
:1030200000000000000000000000000000000000A0
:103030000000000002040608000000000102030472
:103040000102030406070809000000000000000058
:103050000000000000000000000000000000000070
:103060000000000000000000000000000000000060
:103070000000000000000000000000000000000050
:103080000000000000000000000000000000000040
:103090000000000000000000000000000000000030
:1030A0000000000000000000000000000000000020
:1030B0000000000000000000000000000000000010
:1030C0000000000000000000000000000000000000
:1030D00000000000000000000000000000000000F0
:1030E00000000000000000000000000000000000E0
:1030F00000000000000000000000000000000000D0
:0C310000000000000000000000000000C3
:0400000508000131BD
:00000001FF
