:020000040800F2
:10000000282D0020DD020008E5020008E7020008B4
:10001000E9020008EB020008ED0200080000000001
:10002000000000000000000000000000F1010008D6
:10003000F10200080000000079020008C90200086F
:10004000F7020008F7020008F7020008F7020008AC
:10005000F7020008F7020008F7020008F70200089C
:10006000F7020008F7020008F7020008F70200088C
:10007000F7020008F7020008F7020008F70200087C
:10008000F7020008F7020008F7020008F70200086C
:10009000F7020008F7020008F7020008F70200085C
:1000A000F7020008F7020008F7020008F70200084C
:1000B000F7020008F7020008F7020008F70200083C
:1000C000F7020008F7020008F7020008F70200082C
:1000D000F7020008F7020008F7020008F70200081C
:1000E000F7020008F7020008F702000800F002F823
:1000F00000F03AF80AA090E8000C82448344AAF188
:100100000107DA4501D100F02FF8AFF2090EBAE885
:100110000F0013F0010F18BFFB1A43F0010318473B
:100120007811000098110000103A24BF78C878C1F7
:10013000FAD8520724BF30C830C144BF04680C60ED
:10014000704700000023002400250026103A28BF35
:1001500078C1FBD8520728BF30C148BF0B60704739
:100160001FB51FBD10B510BD00F0E0F81146FFF738
:10017000F7FF00F067FB00F0FEF803B4FFF7F2FFB3
:1001800003BC00F0FFF8000080F309887047EFF32C
:1001900009807047684680F3098804480078C007E2
:1001A00014BF0220032080F31488704780120008D7
:1001B000DFF818C0EFF305831B0618BF6047EFF3A5
:1001C0001483DB0708BF604700DF7047950800080D
:1001D000DFF818C0EFF305831B0618BF6047EFF385
:1001E0001483DB0708BF604700DF7047F909000888
:1001F000EFF30980816911F8021C39BB90E80F10F8
:10020000E047EFF3098C194B93E80600914218D0B0
:1002100059B10CB44FF0010381F821302CE9F00FF3
:10022000C1F824C000F02CFE0CBC1A60D2F824C027
:10023000BCE8F00F92F821308CF309881BB192F8DA
:100240002000CCF800006FF0020E704710B5084A8D
:100250001268914209D8074C54F8214090E80F10D9
:10026000A047EFF3098C8CE80F0010BD5800002068
:10027000900300089003000800F01AFD114B93E86A
:10028000060091421BD00CB44FF0000381F82130DE
:10029000EFF3098C2CE9F00FC1F824C000F0F0FD59
:1002A0000CBC1A60D2F824C0BCE8F00F8CF30988AB
:1002B00092F821301BB192F82030CCF800306FF06A
:1002C000020E70475800002000F0A8FED6E700009C
:1002D00000F0DEFA00F0A2FED0E7000009488047F7
:1002E00009480047FEE7FEE7FEE7FEE7FEE7FEE718
:1002F000FEE7FEE7FEE7FEE704480549054A064B30
:100300007047000079040008ED000008282700204D
:10031000282D002028290020282900200048704787
:10032000C426002070477047704770477546FFF736
:10033000F5FFAE4605006946534620F007008546A6
:1003400018B020B5FFF7D8FFBDE820404FF00006F9
:100350004FF000074FF000084FF0000B21F00701AD
:10036000AC46ACE8C009ACE8C009ACE8C009ACE8F0
:10037000C0098D4670470446AFF300802046FFF762
:10038000FCFE000001491820ABBEFEE7260002007B
:100390000000000010B500F001F810BD0CB5002001
:1003A000019000903248006840F480303049086085
:1003B00000BF2F48006800F4003000900198401CF6
:1003C0000190009818B90198B0F5A06FF1D12848B4
:1003D000006810F4003F02D00120009001E00020EE
:1003E00000900098012842D12248006840F0100097
:1003F000204908600846006820F0030008600846AD
:10040000006840F0020008601948406818494860D8
:100410000846406848600846406840F4806048608C
:100420000846406820F47C1048600846406840F464
:10043000E81048600846006840F08070086000BF1F
:100440000B48006810F0007FFAD00948406820F09F
:100450000300074948600846406840F002004860D1
:1004600000BF0348406800F00C000828F9D10CBD1B
:10047000001002400020024010B51348006840F010
:1004800001001149086008464068104908400E49BB
:100490004860084600680E4908400B490860084655
:1004A000006820F4802008600846406820F4FE00C0
:1004B00048604FF41F008860FFF76CFF4FF000604A
:1004C0000449086010BD0000001002400000FFF861
:1004D000FFFFF6FE08ED00E010B5002A06DA22F074
:1004E0000042D21D22F00703102203E0D21C22F0AA
:1004F00003030C2213B19C188C4201D9012010BDBA
:10050000024401448360C0E90021C91AD01888421E
:1005100002D810600246F9E70020106010BD00000C
:1005200010B5044600F0FAFD002805D04FF6FF7123
:10053000DFF808C0206800DF10BD0000490C00088B
:1005400010B5044600F0EAFD002803D0DFF808C02B
:10055000206800DF10BD0000990B000810B50446AC
:1005600004480068401C03490860204600F02CF84D
:1005700010BD00000000002010B5044604480068CB
:10058000401C03490860204600F026F810BD00001A
:100590000400002070B50A4D4FF47A714843296871
:1005A000884200D20846B0FBF1F4A0B2DFF814C0D4
:1005B00000DF286844434FF47A70B4FBF0F070BD5C
:1005C0006C120008A50900084FF6FF71DFF804C09F
:1005D00000DF7047490C0008DFF804C000DF7047F7
:1005E000990B000812E0002405E00948FFF7B6FF68
:1005F0000748FFF7C1FF2046641C06490968884286
:10060000F3DB05480068FFF7C5FF00BFEBE700001C
:10061000781A0020080000202C00002012E000249E
:1006200005E00948FFF79AFF0748FFF7A5FF2046B6
:10063000641C064909688842F3DB05480068FFF737
:10064000A9FF00BFEBE70000781A00200C00002093
:100650003000002012E0002405E00948FFF77EFF8B
:100660000748FFF789FF2046641C0649096888424D
:10067000F3DB05480068FFF78DFF00BFEBE70000E4
:10068000781A0020100000203400002012E000241E
:1006900005E00948FFF762FF0748FFF76DFF2046B6
:1006A000641C064909688842F3DB05480068FFF7C7
:1006B00071FF00BFEBE70000781A00201400002053
:1006C0003800002012E0002405E00948FFF746FF4B
:1006D0000748FFF751FF2046641C06490968884215
:1006E000F3DB05480068FFF755FF00BFEBE70000AC
:1006F000781A0020180000203C00002012E000249E
:1007000005E00948FFF72AFF0748FFF735FF2046B5
:10071000641C064909688842F3DB05480068FFF756
:1007200039FF00BFEBE70000781A00201C00002012
:100730004000002012E0002405E00948FFF70EFF0A
:100740000748FFF719FF2046641C064909688842DC
:10075000F3DB05480068FFF71DFF00BFEBE7000073
:10076000781A0020200000204400002012E000241D
:1007700005E00948FFF7F2FE0748FFF7FDFE2046B7
:10078000641C064909688842F3DB05480068FFF7E6
:1007900001FF00BFEBE70000781A002024000020D2
:1007A0004800002012E0002405E00948FFF7D6FECB
:1007B0000748FFF7E1FE2046641C064909688842A5
:1007C000F3DB05480068FFF7E5FE00BFEBE700003C
:1007D000781A0020280000204C00002070B5054643
:1007E0000C48164641EA032402683AB12146002328
:1007F00032462846DFF820C000DF70BD0560FFF7F5
:10080000C9FC214632462846DFF810C000DF01202F
:1008100070BD0000600000209D100008C90E000897
:1008200070B5064D049C2D6835B141EA032123467D
:10083000DFF80CC000DF70BD012070BD600000203B
:100840009D10000810B54FF40063034A16210348B9
:10085000FFF7C4FF002010BD780000202D11000814
:1008600000BF704700BFFEE7074801684FF0E02077
:10087000416100218161072101610448016841F063
:100880007F410160401770477C12000820ED00E0B6
:100890007047704750E8001F31B10B6840E80032E4
:1008A000002AF7D108467047BFF32F8FFAE7000000
:1008B00070B50D46002812D04FF6FF71084C8842E3
:1008C00004D222680146104600F030FA20684570D4
:1008D000044800F0A1F8BDE8704000F0EDBA70BD2A
:1008E00058000020942600207047000070B51A4D73
:1008F000E86800282ED0A88A401EA882002623E09F
:10090000A06838B161684160606810B1A168816019
:100910006660A66010482146183800F02BFAA08ABD
:10092000A8826078042804D10C49E08A0988084428
:10093000A0820120607084F82000E068E860E06830
:1009400008B10561E6602661A88A002802D1EC683A
:10095000002CD5D170BD0000AC2600206C0000201A
:1009600070B504000FD00D4DA1780126286882785B
:1009700091420CD900F01AFA286846702046BDE86A
:10098000704000F099BA064800F046F8F7E7667044
:100990002146BDE87040024800F0ECB95800002044
:1009A000942600200321FFF783BF000010B5044602
:1009B000008B084320836278618B062A16D0052AB3
:1009C00017D1084215D001EA0002628388432083D0
:1009D000204600F00FFA01206070022084F8200009
:1009E0002146BDE81040034800F0C4B931EA0002D6
:1009F000ECD010BD94260020814202D342688A4286
:100A000001D80120704750E8002F0A6040E800122A
:100A1000002AF8D1002070470146406842684A60C9
:100A20000B780022022B05D0012B03D0032B01D021
:100A30004260704743680BB19960426082607047C2
:100A400070B5044600201546207001226270A17026
:100A50006060A060E0602061A082E082208360830B
:100A600084F8200084F82100608C18B90448FFF74E
:100A700011FFA06229462046BDE8704000F004B88E
:100A8000E01D00207047000010B5428C920803D191
:100A90000F4A1288C2F38D02836A03EB8202530766
:100AA00000D5121F403A4FF08073C2E90E130023A5
:100AB0004FEA030442F823405B1C0E2BFAD3C369B0
:100AC00013624262C162806A0249016010BD000087
:100AD00074120008A52E5AE22DE9F0410F46044693
:100AE0004168002004F10C0621B1617802291AD076
:100AF000A189A9B3A189E289914246D2218904EB57
:100B000081010F61D6E85F1F491CC6E8521F002A09
:100B1000F8D12189491C89B22181E289914200D111
:100B20002081BDE8F081074660702046FFF774FF22
:100B300080F820702189054604EB8101C0690861B5
:100B4000D6E85F0F401CC6E8510F0029F8D1208974
:100B5000401C80B22081E18988420BD1278109E0C5
:100B6000FFE72046FFF758FF0546C06904210760EC
:100B700085F8201001206870284600F03BF92946CE
:100B8000BDE8F041034800F0F5B8BDE8F0410320AE
:100B9000FFF766BE942600202DE9F0470546408801
:100BA00020B1274CA9682268914202D0FF20BDE8FD
:100BB000F087401E0004000C68803ED121686878F0
:100BC000DFF88080887069684FF00009012739B329
:100BD0002846FFF721FF0646052086F8200030460C
:100BE00000F008F96F80AE60B07868702168D8F8BE
:100BF00004008A788078824201D330460AE01148A6
:100C000000F0B8F831460F4800F0B4F8206847709B
:100C1000777010E0FFF7A4FE216881F820900CE0C7
:100C2000D8F804108A782168824206D9054800F075
:100C3000A1F8206847700020ECE70020B7E700002B
:100C4000580000209426002070B5184D0E4604462A
:100C50004188286839B1A168814208D16088401C68
:100C60006080002070BDA06080786070F6E776B18B
:100C700062788078824203D28870A06800F0A0F881
:100C8000606830B12046296800F074F808E001205F
:100C900070BD28686060296800204860286884600A
:100CA00009213046FFF704FEF1E70000580000205C
:100CB00070B51B48012102685170006800F076F899
:100CC000184D6C7817E000BF05EBC4014868027846
:100CD000E2B1012A1FD000F0B9F8E878641C844220
:100CE00000D100240F48801CD0E84F1F491EC0E8E7
:100CF000421F002AF8D1A8780028E5D16C700A4874
:100D0000FFF78AFEBDE8704000F0D6B8098989B2C5
:100D1000FFF74CFEE1E78968FFF7DEFEDDE7000044
:100D200058000020801F002094260020104A10B593
:100D3000D368ABB113469B8A03E08CB12246A48AE8
:100D40002344D4688B42F8D3C460D0600261C46885
:100D500004B12061591A8182908A401A908210BD94
:100D60000024C460D060C91A02619182848210BDDF
:100D7000AC26002030B502780023022A03D0012AD5
:100D800001D0032A00D101238C7800E0104642688C
:100D900012B19578A542F9D24A6041601BB102B107
:100DA0009160886030BD0020FBE7000003494A687D
:100DB0004260002282604860704700009426002054
:100DC00010B5836804462BB9607801280ED1084B12
:100DD00003E09B6818780028FBD0204600F01EF83E
:100DE0002146BDE810401846FFF7C4BF10BD000003
:100DF0009426002010B5016900290ED0C268CA608F
:100E0000C36800223BB18B8A848A23448B82C368E7
:100E10001961C26000E08A82026110BD816839B147
:100E200042684A604168002901D080688860704744
:100E3000054906E04A68824202D14068486070472E
:100E400011460029F6D170479426002010B541685C
:100E500079B1FFF7E1FD0446FFF7CCFF0120607098
:100E6000032084F820002146BDE810400348FFF726
:100E700081BF4188491C418010BD0000942600209C
:100E800010B50B4C2068D0E90910814203D30068EB
:100E90000849884202D00120FFF7E2FC2068016B7C
:100EA00011B1426A8A4201D2416A016310BD000059
:100EB00058000020A52E5AE20249486002214170E4
:100EC00070470000580000202DE9F0478146164683
:100ED0008846002004463E4A3E4902E042F820404F
:100EE000401C0B889842F9D33B48342201883B4888
:100EF000FFF7F2FA3A48008880B240F000423948E1
:100F000001683948FFF7E8FA38480822018838486C
:100F10000068FFF7E1FA374FFF25374AFD707C8400
:100F200000213846FFF78CFD3448042101704460ED
:100F300033480170C46004618482786A2030FFF70E
:100F400023F9304831490760022078702E48047038
:100F500044700978C170FFF795FD2D48016841F490
:100F60007F0101600068290601EA00202849C0438A
:100F70001439B0FA80F00968C0F10800C1F3022109
:100F8000814200DB481C2249091F0B686FF0807208
:100F9000824063F317020A60FFF766FC1D490028D0
:100FA00008600CDB1C49455400F01F0201219140F0
:100FB00040114FF0E02202EB8000C0F800113246F1
:100FC00041464846BDE8F047002300F067B80000FE
:100FD00004200020701200088C120008881A0020DB
:100FE0007412000890120008E01D002096120008FC
:100FF000500000206026002065080008942600208C
:10100000AC26002058000020801F00209412000809
:1010100020ED00E06800002000E400E00C4810B57E
:101020000268012151700068FFF7C0FEFFF75CFC09
:1010300008480168491C0160FFF758FC00F00EF8F1
:101040000548FFF7E9FCBDE81040FFF735BF000099
:10105000580000206C0000209426002070B50D4C34
:101060002068002815D0A0880B4E401EA0800AE002
:10107000E888FFF70EFCA888A08028682060294631
:101080003068FFF7B9FCA088002802D12568002D40
:10109000EED170BD70000020500000202DE9F0411D
:1010A0001E46174680460C4611F0FF0F00D14C1C1F
:1010B0001648FFF7EFFB050025D0C4F30F20AF6201
:1010C0006884E1B242462846EE61FFF7B9FC01248C
:1010D0000F48104906E000BF00EB840252F8042CD0
:1010E00022B1641C0A889442F6D9002400EB8400E3
:1010F00040F8045CEC702846FFF732FC06480068B4
:1011000080F820402046BDE8F0810000881A0020C9
:1011100004200020701200085800002002480068D7
:10112000002800D0C07870475800002008B52BA0D8
:101130004FF400732B4A142100902B48FFF770FBEB
:101140002AA04FF400732B4A192100902A48FFF778
:1011500067FB2AA04FF400732A4A1E2100902A48F8
:10116000FFF75EFB29A04FF400732A4A2321009069
:101170002948FFF755FB29A04FF40073294A28217D
:1011800000902948FFF74CFB28A04FF40073294A30
:101190002D2100902848FFF743FB28A04FF400734F
:1011A000284A322100902848FFF73AFB27A04FF445
:1011B0000073284A372100902748FFF731FB27A00A
:1011C0004FF40073274A3C2100902748FFF728FB83
:1011D00000BF6420FFF7DEF9FBE700005461736B8A
:1011E0002041000078080020E50500085461736B79
:1011F00020420000780A00201D0600085461736B2D
:1012000020430000780C0020550600085461736BE1
:1012100020440000780E00208D0600085461736B96
:101220002045000078100020C50600085461736B4B
:101230002046000078120020FD0600085461736B00
:101240002047000078140020350700085461736BB4
:1012500020480000781600206D0700085461736B69
:101260002049000078180020A5070008D0070000DA
:101270000F000000C4000E01050000003F1901002E
:1012800001000000D007000000000000540300002F
:10129000A001000010000000B812000800000020AB
:1012A00078000000280100083013000878000020B2
:1012B000B02C000044010008000000000000000005
:1012C000640000002C01000064000000F401000034
:1012D00064000000580200006400000032000000BA
:1012E0000A000000640000005A00000050000000E6
:1012F00064000000C80000002C0100006400000031
:1013000090010000900100000000000000000000BB
:1013100000000000000000000000000000000000CD
:1013200000000000000000000000000000000000BD
:04000005080000ED02
:00000001FF
